:1000000097C50000C6C50000C4C50000C2C50000F9
:10001000C0C50000BEC50000BCC50000BAC50000D8
:10002000B8C50000B6C50000B4C50000B2C50000E8
:10003000B0C50000AEC50000ACC50000AAC50000F8
:10004000A8C50000A6C50000A4C50000A2C5000008
:10005000A0C500009EC500009CC500000C94F308DC
:1000600098C5000099C700006EC7000092C5000047
:1000700090C500008EC500008CC500008AC5000038
:1000800088C5000086C5000084C5000082C5000048
:1000900080C500007EC500007CC500000C94450BA7
:1000A00078C5000076C5000074C5000072C5000068
:1000B00070C500006EC500006CC500006AC5000078
:1000C00068C5000066C5000064C5000062C5000088
:1000D00060C500005EC500005CC500005AC5000098
:1000E00058C5000031083408230827082B086B087E
:1000F00038083C08420846084A085008540858087E
:100100006B085E0862086608AF0CB40CB90CC40C2E
:10011000CF0C520DDA0CE20CEA0CF50C000D0B0DB5
:100120001B0D260D520D310D3C0D470D036EDB36B8
:100130003D9A9999993DABAAAA2A3E000000803FBA
:10014000084AD73B3BCE016E84BCBFFDC12F3D6C3E
:1001500074319ABD56833DDA3D00C77F11BED9E4A4
:10016000BB4C3E916BAAAABE000000803F072C7AD0
:10017000A5BA6CC590DA3B9365FC8BBC53F810FDB7
:100180003C5692834DBD879D3AB63DCBC9BF5BBE01
:1001900073DA0FC93F0001B202FFFF019004092387
:1001A000A135016A0206000160080000000000009D
:1001B00000000060044000000001620200000060D6
:1001C0000400400000037B034CCD6C03AB033656A8
:1001D0007600680402CB47A202180400058BC10117
:1001E0000C0400000000037F060CC92C97979703AE
:1001F0008903264666006C022000024004000000CD
:100200000002440400000000024804000000000254
:100210004C040000000002500400000000025404DE
:100220000000000002580400000000025C0400000E
:10023000000002BC040000000001EC0400004000CB
:10024000037F060CC92C9797970402030D355D04B4
:100250000904872D353D00A3010000000001078639
:1002600001FE074105F120283038077E013007469E
:10027000019A074704F1283038076C04F128303818
:100280000216020001FB00003E000B0036000100D8
:10029000020003000000650054FFEF0000FA800038
:1002A0000B128200010002000000000000000000AC
:1002B000000000000000280000FFFF4581FFFFFA5A
:1002C0007200000000000003E80000000100017F50
:1002D000FFFFFE8001001B00000000000000000086
:1002E0000000000000003E03304000000002CAE3AE
:1002F000093E8000002000000000000000400000D7
:10030000006000000041FF000000000B2A00001602
:100310005500002182FD872650FD800000001F004F
:100320000000058000000000000001000000020045
:100330000000030000400000000000046F000265A0
:100340003200005EC040000000000000000000001D
:100350000000000000FB8C6F5DFD5D08D9007C7320
:100360003B006C12CC3200139D3200D0D632000814
:1003700000400001F4FFE68079020000000000D098
:10038000D600002710FB0000004000000000000025
:10039000000000000000000001000000000000015B
:1003A00000010000000000FA36FFBC308E0005FBA3
:1003B000F0FFD95BC8FFD09ABE000010A9FFF41E61
:1003C000B200CEBBF70000000100000004000200F4
:1003D000020200000CFFC280000001800000CF80FC
:1003E00000400000000000000100000000000006C6
:1003F00000000000140000000000000000000000E9
:1004000000000000000000000000000000000000EC
:1004100000000000000000000000000000000000DC
:10042000000000000000000000033F68B679352896
:10043000BCC67ED16C80000000400000000000B20D
:100440006A00000000000000000000000000003F03
:10045000F00000003000000000000000000000007C
:10046000000000000000000000000000000000008C
:1004700000000000000000254D002F706D000005F9
:10048000AE000C02D00000000000650054FFEF0039
:100490000000000000000001000044000000000C0B
:1004A0000000000100000000000065000000540092
:1004B00000FFEF000000000000000000000000004E
:1004C00000000000004000000000000000000000EC
:1004D00000000000004000000000000000000000DC
:1004E0000000000000000000010000000200000009
:1004F00000000000000000000000000000000000FC
:1005000000000000000000000000000000000000EB
:100510000000000000001B000000000000000000C0
:1005200000000000000000000000000000000000CB
:1005300000000000000000000000000000000000BB
:100540000040000000001B00000000000000000050
:10055000000000000000000000000000000000009B
:10056000000000000000000000000000000000008B
:10057000000000000000000000000000000000007B
:100580000000000000D8DCBAA2F1DEB2B8B4A88145
:1005900091F74A907F916AF3F9DBA8F9B0BAA0808D
:1005A000F2CE81F3C2F1C1F2C3F3CCA2B280F1C6A4
:1005B000D880BAA7DFDFDFF2A7C3CBC5B6F087A22A
:1005C000942448703C95406834589B78A2F18392FB
:1005D0002D557DD8B1B4B8A1D09180F270F370F2EE
:1005E0007C80A8F101B09887D943D886C988BAA180
:1005F000F20EB89780F1A9DFDFDFAADFDFDFF2AA12
:10060000C5CDC7A90CC92C97979797F1A9892646FC
:1006100066B0B4BA80ACDEF2CAF1B28C02A9B69868
:1006200000890E161EB8A9B4992C547CB08AA896DD
:10063000365676F1B9AFB4B083C0B8A89711B18F70
:1006400098B9AFF0240844106418F1A329557DAF80
:1006500083B593AFF0002850F1A3869F61A6DADE40
:10066000DFD9FAA38696DB31A6D9F8DFBAA68FC206
:10067000C5C7B28CC1B8A2DFDFDFA3DFDFDFD8D808
:10068000F1B8A8B286B4980D355DB8AA98B0872D98
:10069000353DB2B6BAAF8C96198F9FA70E161EB411
:1006A0009AB8AA872C547CB9A3DEDFDFA3B180F20D
:1006B000C4CDC9F1B8A9B499830D355D89B9A32D0D
:1006C000557DB593A30E161EA92C547CB8B4B0F179
:1006D0009783A81184A50998A383F0DA240844100D
:1006E0006418D8F1A529557DA58595021A2E3A568C
:1006F0005A4048F9F3A3D9F8F098832408441064C9
:10070000189782A8F111F098A2240844106418DA0E
:10071000F3DED883A59401D9A302F1A2C3C5C7D83B
:10072000F18492A24DDA2AD84869D92AD86855DAD4
:1007300032D85071D932D8705DDA3AD85879D93A6E
:10074000D87893A34DDA2AD84869D92AD86855DAD7
:1007500032D85071D932D8705DDA3AD85879D93A4E
:10076000D878A88A9AF02850789EF38818F19F1DAF
:1007700098A8D908D8C89F129EF315A8DA1210D8E5
:10078000F1AFC8978734B5B994A421F3D922D8F230
:100790002DF3D92AD8F235F3D932D881A46060611B
:1007A000D961D86C6869D969D8747071D971D8B1B8
:1007B000A384193D5DA3831A3E5E9310308110110E
:1007C000B8B0AF8F94F2DA3ED8B49AA88729DAF895
:1007D000D8879A35DAF8D8879A3DDAF8D8B1B9A42B
:1007E0009885022E56A581000C14A397B08AF12D8E
:1007F000D928D84DD948D86DD968D8B1840DDA0E2A
:10080000D8A32983DA2C0ED8A3844983DA2C4C0E82
:10081000D8B8B0A88A9AF520AADADFD8A840AAD01A
:10082000DADED8A860AADAD0DFD8F19786A8319BA3
:10083000069907AB9728889BF00C201440B8B0B4F9
:10084000A88C9CF0042851791D301438B282ABD0AA
:10085000982C505078789BF11AB0F08A9CA82951B6
:10086000798B2951798A2470598B2058718A44696F
:10087000388B3940688A6448318B304960A58820BC
:100880000971584468113964493019F1AC002C548D
:100890007CF08CA804285078F1889726A85998AC49
:1008A0008C02264666F0899CA82951792470594407
:1008B0006938644831A98809205970AB11384069FA
:1008C000A8193148608CA83C415C207C00F18798D5
:1008D0001986A86E767EA999882D557D9EB9A38A22
:1008E000228A6E8A568A5E9FB183062646660E2E3F
:1008F0004E6E9DB8AD002C547CF2B18CB499B9A366
:100900002D557D8191AC38AD3AB58391AC2DD92868
:10091000D84DD948D86DD968D88C9DAE29D904AEA8
:10092000D851D904AED879D904D881F39DAD008DC2
:10093000AE1981ADD901D8F2AEDA26D88E912983CD
:10094000A7D9ADADADADF32AD8D8F1B0AC89913E01
:100950005E76F3AC2E2EF1B18C5A9CAC2C28282854
:100960009CAC3018A8988128343C9724A728343CA4
:100970009C24F2B089AC912C4C6C8A9B2DD9D8D890
:1009800051D9D8D879D9D8D8F19E88A331DAD8D816
:10099000912DD928D84DD948D86DD968D8B183932D
:1009A000353D8025DAD8D88569DAD8D8B49381A3C3
:1009B00028343CF3AB8BF8A391B609B4D9ABDEFA7B
:1009C000B0879CB9A3DDF1A3A3A3A395F1A3A3A32F
:1009D0009DF1A3A3A3A3F2A3B49080F2A3A3A3A326
:1009E000A3A3A3A3A3A3B2A3A3A3A3A3A3B087B5C5
:1009F00099F1A3A3A398F1A3A3A3A397A3A3A3A34C
:100A0000F39BA3A3DCB9A7F1262626D8D8FF0000C4
:100A100020002300260029002C002F0032000001B6
:100A20000000030106010901000021002400270045
:100A30002A002D00300033000101000004010701ED
:100A40000A0100002200250028002B002E003100A2
:100A5000340002010000050108010B010505050530
:100A6000070508080808020202020A0A0808040426
:100A70000404010101010101010103030303030354
:100A80000303040707070C0C0C0C0C0C0C0C0202E3
:100A9000020206060606060606060B0B0B0B0B0BE0
:100AA0000B0B01021020200808102040102040806D
:100AB0000201020108040201010204081020408022
:100AC00080402010080402018004020180402010B0
:100AD00008040201080402010102040810204080F9
:100AE000010204081020408000000A0B02090C0DCE
:100AF0000E080703040100000000000000000000D1
:100B000000000000000000000000000000000000E5
:100B100000000000121110000000000000000000A2
:100B2000000000000000000000000000000094161B
:100B300011241FBECFEFD1E2DEBFCDBF00E00CBF5E
:100B400024E0A8E4B2E001C01D92AD34B207E1F7A1
:100B500012E0A0E0B2E0E4E5F9E300E00BBF02C080
:100B600007900D92A834B107D9F715E0C8E9D5E090
:100B700000E006C021970109802FFE010E9408179E
:100B8000C739D10780E00807A9F70E94B90F0C9474
:100B9000A81C36CAFC01918D828D981761F0828D58
:100BA000DF01A80FB11D5D968C91928D9F5F9F73A1
:100BB000928F90E008958FEF9FEF0895FC01918D43
:100BC000828D981731F0828DE80FF11D858D90E0B0
:100BD00008958FEF9FEF0895FC01918D228D892F4D
:100BE00090E0805C9F4F821B91098F739927089535
:100BF00081E793E0F1DF21E0892B09F420E0822FE7
:100C00000895FC01848DDF01A80FB11DA35ABF4FC9
:100C10002C91848D90E001968F739927848FA689FB
:100C2000B7892C93A089B1898C9180648C93938D22
:100C3000848D981306C00288F389E02D80818F7D12
:100C400080830895EF92FF920F931F93CF93DF93CA
:100C5000EC0181E0888F9B8D8C8D981305C0E8890D
:100C6000F989808185FD23C0F62E0B8D10E00F5F82
:100C70001F4F0F731127E02E8C8DE8120BC00FB69B
:100C800007FCFACFE889F989808185FFF5CFCE018D
:100C9000B8DFF2CF8B8DFE01E80FF11DE35AFF4F55
:100CA000F0820B8FEA89FB898081806207C0EE8920
:100CB000FF896083E889F98980818064808381E08D
:100CC00090E0DF91CF911F910F91FF90EF900895E9
:100CD000CF93DF93EC01888D8823C1F0EA89FB89EB
:100CE000808185FD05C0A889B9898C9186FD0EC0DB
:100CF0000FB607FCF5CF808185FFF2CFA889B989AF
:100D00008C9185FFEDCFCE017CDFE8CFDF91CF91D5
:100D1000089580E090E0892B19F06ADF811125C0E9
:100D200080E090E0892B41F080E090E0892B21F079
:100D30000E94000081111CC080E090E0892B41F0EE
:100D400080E090E0892B21F00E940000811113C007
:100D500080E090E0892BA1F080E090E0892B81F089
:100D60000E94000081110AC008950E940000D8CF9F
:100D70000E940000E1CF0E940000EACF0C94000026
:100D800008953FB7F8948091220390912303A09196
:100D90002403B091250326B5A89B05C02F3F19F069
:100DA0000196A11DB11D3FBFBA2FA92F982F8827EB
:100DB000820F911DA11DB11DBC01CD0142E0660F46
:100DC000771F881F991F4A95D1F70895809148028F
:100DD00090E020914902821B9109089585ED80934E
:100DE000BC008091BC0084FDFCCF10924C030895A0
:100DF0004091D802262F30E0240F311D21323105D9
:100E0000DCF420914C032430C9F4FC0180E090E034
:100E1000861758F43091D8022191DC01AA54BD4FB5
:100E2000A30FB11D2C930196F3CF8091D802680FC8
:100E30006093D80280E0089581E0089582E00895EB
:100E40000895E091490280914802E81730F4F0E0FB
:100E5000E350FD4F808190E008958FEF9FEF08955C
:100E60009091490280914802981750F4E92FF0E0E0
:100E7000E350FD4F208130E09F5F9093490202C014
:100E80002FEF3FEFC9010895CF92DF92EF92FF92CB
:100E90000F931F93CF93DF937C01262F972F8A0107
:100EA00080914D03882391F0C62FD72F6E01C40E79
:100EB000D51ECC15DD0569F06991D701ED91FC9146
:100EC0000190F081E02DC7011995F3CF642F822F97
:100ED0008FDFC801DF91CF911F910F91FF90EF90AD
:100EE000DF90CF900895CF93DF931F92CDB7DEB7F9
:100EF000698320914D032223D1F020917003203289
:100F000040F021E030E0FC013383228380E090E078
:100F100014C080914E03E82FF0E0E15BFC4F998113
:100F200090838F5F80934E038093700304C061E0D1
:100F3000CE0101965DDF81E090E00F90DF91CF91CF
:100F400008950E94411C1F920F920FB60F92112418
:100F50000BB60F922F933F934F935F936F937F93B3
:100F60008F939F93AF93BF93EF93FF9381E793E0AA
:100F700048DEFF91EF91BF91AF919F918F917F914B
:100F80006F915F914F913F912F910F900BBE0F90FA
:100F90000FBE0F901F9018951F920F920FB60F92D1
:100FA00011240BB60F922F938F939F93EF93FF9380
:100FB000E0918103F09182038081E0918703F091B9
:100FC000880382FD12C0908180918A038F5F8F73A6
:100FD00020918B03821751F0E0918A03F0E0EF58E3
:100FE000FC4F958F80938A0301C08081FF91EF9120
:100FF0009F918F912F910F900BBE0F900FBE0F906E
:101000001F901895362F90E0FC01E851F54F449160
:10101000FC01EE55F54F2491FC01E45AF54F9491F3
:10102000992309F46BC0442309F455C050E0FA0138
:101030003197E231F10508F04EC08827EE58FF4F96
:101040008F4F0C940817809180008F7707C0809194
:1010500080008F7D03C080918000877F8093800017
:101060003AC084B58F7702C084B58F7D84BD33C00C
:101070008091B0008F7703C08091B0008F7D809306
:10108000B00029C0809190008F7707C080919000B8
:101090008F7D03C080919000877F809390001BC05C
:1010A0008091A0008F7707C08091A0008F7D03C042
:1010B0008091A000877F8093A0000DC080912001C7
:1010C0008F7707C0809120018F7D03C08091200120
:1010D000877F80932001E92FF0E0EE0FFF1FEE5B8A
:1010E000F54FA591B4918FB7F894EC91311103C0ED
:1010F00020952E2301C02E2B2C938FBF0895CF93C4
:10110000DF9390E0FC01EE55F54F2491FC01E45A89
:10111000F54F8491882361F190E0880F991FFC01BD
:10112000E85DF54FC591D491FC01EE5BF54FA591BB
:10113000B491611109C09FB7F894888120958223EA
:101140008883EC912E230BC0623061F49FB7F89432
:101150003881822F809583238883EC912E2B2C93CA
:101160009FBF06C08FB7F894E8812E2B28838FBFCE
:10117000DF91CF9108958F929F92AF92BF92CF92BD
:10118000DF92EF92FF926B017C01FBDD4B015C0172
:10119000C114D104E104F104E9F0F3DDDC01CB0179
:1011A00088199909AA09BB09883E9340A105B10590
:1011B00078F321E0C21AD108E108F10888EE880E20
:1011C00083E0981EA11CB11CC114D104E104F104F8
:1011D00021F7DECFFF90EF90DF90CF90BF90AF90E0
:1011E0009F908F9008951F920F920FB60F92112427
:1011F0002F933F938F939F93AF93BF9380911E0341
:1012000090911F03A0912003B091210330911D0301
:1012100023E0230F2D3720F40196A11DB11D05C039
:1012200026E8230F0296A11DB11D20931D03809374
:101230001E0390931F03A0932003B093210380917A
:10124000220390912303A0912403B09125030196DA
:10125000A11DB11D8093220390932303A093240327
:10126000B0932503BF91AF919F918F913F912F91A3
:101270000F900FBE0F901F901895EF92FF920F9353
:101280001F93CF93DF931F921F92CDB7DEB7142F1A
:1012900091E090934D0380936F0310924E03109250
:1012A00070038EE094E029833A831DDE2981022FAA
:1012B000E22E3A81F32E8E2D801B811738F4F70130
:1012C00061917F018EE094E00EDEF5CF7DD491E058
:1012D000811190E0892F0F900F90DF91CF911F9196
:1012E0000F91FF90EF9008951F93CF93DF931F927C
:1012F0001F92CDB7DEB75A83498391E090934D0397
:1013000080936F0310924E03109270038EE094E06E
:10131000EADD19816A818EE094E0E5DD612F8EE0DF
:1013200094E0E1DD51D491E0811190E0892F0F909C
:101330000F90DF91CF911F910895CF93DF931F926C
:10134000CDB7DEB749839E012F5F3F4F41E095DF68
:101350000F90DF91CF9108952F923F924F925F921D
:101360006F927F928F929F92AF92BF92CF92DF92B5
:10137000EF92FF920F931F93CF93DF93CDB7DEB71A
:1013800027970FB6F894DEBF0FBECDBF8F83962E82
:10139000742F59018FB7F894C0901E03D0901F038B
:1013A000E0902003F09021038FBF5F81550F5B8396
:1013B000812C312C2224239450E05D834C8328011E
:1013C000612C712C871608F0A1C020924D035F811B
:1013D00050936F0310924E0310927003692D8EE0AC
:1013E00094E07E8380DDF0D320924D035F815093A3
:1013F0006F0310924E03109270037E8180914C0314
:101400008111FCCF2C813D81281931092132310510
:1014100014F020E230E0213208F020E220924C0368
:1014200020924B038FEF80934A0310924903820F5F
:101430008093480320922703809127034B81842BBC
:101440008093270380912603813071F41092260344
:10145000809127038093BB008091BC0083FDF8CF6F
:1014600055EC5093BC0003C085EE8093BC00809186
:101470004C038130E1F380914903821710F42091ED
:101480004903A8E2B3E0EDEFF2E08E2F4DEF52E01A
:10149000841B821718F48D918193F7CF1092490223
:1014A000209348029091480280914902981741F197
:1014B0000115110589F4A501430D511D37FC5A95FD
:1014C0005A8349838EE094E07E83CADCE981FA8105
:1014D000808333947E81E6CF2FB7F89480911E03EA
:1014E00090911F03A0912003B09121032FBF8C196D
:1014F0009D09AE09BF0984159505A605B705D8F263
:10150000872F713208F080E2880E5CCF011511053B
:1015100009F12FB7F89480911E0390911F03A091B9
:101520002003B09121032FBF8C199D09AE09BF097B
:1015300020E030E080179107A207B30758F0272F6B
:1015400030E0832D032C000C990B8217930714F4C1
:1015500033243A94832D27960FB6F894DEBF0FBE3E
:10156000CDBFDF91CF911F910F91FF90EF90DF9052
:10157000CF90BF90AF909F908F907F906F905F9033
:101580004F903F902F900895BF92CF92DF92EF92AD
:10159000FF920F931F93CF93DF931F92CDB7DEB7C8
:1015A000F82EE62EC42EB22ED02E08EE13E09E01A9
:1015B0002F5F3F4F41E0D0DE882319F1EC2DF0E0A2
:1015C000EB19F109319621E030E002C0220F331F00
:1015D000BA94E2F7215031090E2E01C0220F0A946D
:1015E000EAF78D2D01C0880FEA95EAF7422F409562
:1015F000998149232823422B49836E2D8F2D9DDE0F
:1016000001C080E00F90DF91CF911F910F91FF906B
:10161000EF90DF90CF90BF900895CF92DF92EF923E
:10162000FF920F931F93CF93DF931F92CDB7DEB737
:10163000F82EE62ED42EC22E08EE13E09E012F5F68
:101640003F4F41E089DE9981CC2041F041E050E0FC
:1016500001C0440FDA94EAF7492B09C021E030E0D9
:10166000A90101C0440FDA94EAF740954923498360
:101670006E2D8F2D62DE0F90DF91CF911F910F9114
:10168000FF90EF90DF90CF9008951F920F920FB6CA
:101690000F9211240BB60F922F933F934F935F93AA
:1016A0006F937F938F939F93AF93BF93EF93FF932A
:1016B0008091B900887F803609F49CC068F5883233
:1016C00009F45BC090F4803109F454C038F48823E5
:1016D00009F4F6C0883009F44DC0F5C0883109F42A
:1016E0004CC0803209F45DC0EEC0803409F468C09B
:1016F00048F4803309F455C0883309F0E4C080937E
:101700004A03D8C0803509F44FC0883509F45DC05C
:10171000883409F0D8C0D6C0883909F4C7C0A8F405
:10172000883709F467C038F4883609F463C0803715
:1017300009F460C0C8C0883809F4B8C0803909F419
:101740005FC0803809F0BFC05BC0803B09F486C031
:1017500038F4803A09F466C0883A09F47FC0B3C00F
:10176000803C09F4A7C0883C09F4A4C0883B09F474
:101770008AC0A9C08091270310C09091490380912D
:101780004803981770F5E091490381E08E0F80932C
:101790004903F0E0E85DFC4F80818093BB0085EC5D
:1017A00086C080934A038EC0E091490381E08E0F8A
:1017B000809349038091BB00F0E0E85DFC4F80839B
:1017C00090914903809148036EC0E091490381E004
:1017D0008E0F809349038091BB00F0E0E85DFC4FE1
:1017E000808380914B0381116DC081E0809326033B
:1017F00084EA61C083E080934C031092FC02CFCF57
:101800008091FC02803208F051C0E091FC0281E03E
:101810008E0F8093FC028091BB00F0E0E452FD4FFC
:101820008083BDCF85EC8093BC0010924C038091E7
:10183000FC02803230F4E091FC02F0E0E452FD4F13
:1018400010826091FC0270E0E091DA02F091DB021C
:101850008CED92E019951092FC0235C084E08093E3
:101860004C031092D9021092D802E091D602F09166
:10187000D70219958091D802811105C081E080932B
:10188000D8021092B602E091D90281E08E0F8093C7
:10189000D902F0E0EA54FD4F80818093BB00909123
:1018A000D9028091D802981708F479CF85E88093FF
:1018B000BC0009C085EC8093BC0010924C0303C0AF
:1018C00010924A038BDAFF91EF91BF91AF919F91F4
:1018D0008F917F916F915F914F913F912F910F90D9
:1018E0000BBE0F900FBE0F901F901895EF92FF92B6
:1018F0000F931F93CF93DF931F921F92CDB7DEB745
:101900007C012FEF30E0DB010E94101724E630E06D
:1019100040E050E00E945B1C890161E08E2D29832C
:101920003A83EDDB29813A810115110509F4BDC027
:101930000F3F110509F4BBC0F701FF27E851F54F30
:10194000E4914E2F50E0FA013197E231F10508F0B1
:10195000A9C08827EC57FF4F8F4F0C94081784B508
:10196000806884BD27BDA6C084B5806284BD28BDC3
:10197000A1C080918000806880938000C90190930D
:1019800089008093880096C0809180008062809357
:101990008000C90190938B0080938A008BC0809156
:1019A0008000886080938000C90190938D008093AF
:1019B0008C0080C08091B00080688093B00020933C
:1019C000B30078C08091B00080628093B000209313
:1019D000B40070C080919000806880939000C9012D
:1019E000909399008093980065C0809190008062E8
:1019F00080939000C90190939B0080939A005AC0F5
:101A000080919000886080939000C90190939D0020
:101A100080939C004FC08091A00080688093A000BC
:101A20008091A0008F7B8093A000C9019093A900B2
:101A30008093A8003FC08091A00080628093A000A6
:101A4000C9019093AB008093AA0034C08091A0009C
:101A500088608093A000C9019093AD008093AC0092
:101A600029C080912001806880932001C901909352
:101A70002901809328011EC08091200180628093FB
:101A80002001C90190932B0180932A0113C08091FA
:101A90002001886080932001C90190932D018093DB
:101AA0002C0108C00038110514F460E001C061E0A9
:101AB0008E2DA8DA0F900F90DF91CF911F910F918B
:101AC000FF90EF9008950F931F93CF93DF93182FFC
:101AD000EB0160E097DA83E090E00197F1F761E0D5
:101AE000812F90DA83E290E00197F1F760E0812F97
:101AF00089DACE019927FC01EE55F54F6491FC017E
:101B0000E45AF54FE491F0E0EE0FFF1FE25FF54F6E
:101B10008591949100E412E42FE030E0462FE4D167
:101B2000611571058105910539F0DC01CB01019644
:101B3000A11DB11DBF7003C080E090E0DC01BC01BD
:101B4000990F880B990B0E948D1826E933E44BE01E
:101B50005DE30E94711920E030E040E05FE30E9405
:101B600071190E945A18CB01DF91CF911F910F91EB
:101B70000895CF92DF92EF92FF920F931F93CF932E
:101B8000DF936C017A018B01C0E0D0E0CE15DF0558
:101B900089F0D8016D918D01D601ED91FC910190F4
:101BA000F081E02DC6011995892B11F47E0102C048
:101BB0002196ECCFC701DF91CF911F910F91FF903C
:101BC000EF90DF90CF9008952091700390916F0374
:101BD000213208F04AC080914C038111FCCF32E0E1
:101BE00030934C0331E030934B033FEF30934A0383
:101BF0001092490320934803AFE4B3E048E253E076
:101C0000FA013E2F341B321718F43D913193F9CF6E
:101C10001092270320912703990F922B909327036B
:101C200090912603913061F410922603909127033E
:101C30009093BB009091BC0093FDF8CF95EC01C050
:101C400095EE9093BC0090914C039230E1F390910B
:101C50004A039F3F79F080914A03803241F080919E
:101C60004A03803331F084E005C081E003C082E0A4
:101C700001C083E010924E031092700310924D0346
:101C800008950F931F93CF93DF93CAE2D4E008EE39
:101C900013E02BE234E042E062E788815DDB89817A
:101CA00090E0982F88272A81822BDF91CF911F9176
:101CB0000F91089521E042E06AE680912A04ADCCBC
:101CC0000F931F93662349F0462F9C0108EE13E003
:101CD00064E780912A0440DB02C0FC0110821F915E
:101CE0000F910895CF93DF93009771F0FC0101905D
:101CF0000020E9F73197AF01481B590BBC0181E780
:101D000093E037DFEC0102C0C0E0D0E042E050E0F9
:101D100065E472E081E793E02CDF8C0F9D1FDF917B
:101D2000CF910895482F6EE680912A0406CB2F921A
:101D30003F924F925F926F927F928F929F92AF925B
:101D4000BF92CF92DF92EF92FF920F931F93CF93A8
:101D5000DF933C015B01342ED22F202E4F716DE6B4
:101D600080912A04EADA8D2FDDDF80E190E00E9485
:101D7000301A6C01002339F080E190E00E94301AA3
:101D8000C82F492E02C0C0E0412CE12CF12CEA14EE
:101D9000FB0408F068C0C7014096A816B90618F4FD
:101DA0005A2C5E1802C080E1582E852D90E020E06C
:101DB00031E02D1B31092817390714F45D2E519499
:101DC000F301EE0DFF1D222059F09C2FAC2FB42DF6
:101DD0008A2F891B851530F484918D933196F8CF25
:101DE000CE2F4F2E2C2F342D452D6FE680912A04B7
:101DF00044DA852C912CC114D10411F1432D4F717B
:101E00006DE680912A0499DA8D2F8CDF08EE13E0BD
:101E10009601452D6FE680912A049EDAA401B60151
:101E20008C2F942D0E94451C892B51F0C6010E94D5
:101E3000C51A222011F18C2F942D0E94C51A1DC0A5
:101E4000E80CF91CD50DEA14FB0408F0A0CFD11161
:101E500001C03394432D4F716DE680912A046DDAF1
:101E60008D2F60DF94CFC6010E94C51A222039F061
:101E70008C2F942D0E94C51A02C080E001C081E021
:101E8000DF91CF911F910F91FF90EF90DF90CF9056
:101E9000BF90AF909F908F907F906F905F904F908A
:101EA0003F902F900895EF92FF920F931F93CF933F
:101EB000DF931F92CDB7DEB77A0189019E012F5FB4
:101EC0003F4F41E049DA882339F029812E7730E00D
:101ED00035952795F70120830F90DF91CF911F91C2
:101EE0000F91FF90EF900895CF92DF92EF92FF92C3
:101EF0000F931F93E82FF92F05C0015011092109F5
:101F0000310961F1908196239417B9F305C001500E
:101F100011092109310911F1908196239413F7CF0A
:101F2000C12CD12CE12CF12C0AC08FEFC81AD80A91
:101F3000E80AF80A0C151D052E053F0579F0808189
:101F40008623841791F36C2D7D2D8E2D9F2D1F914F
:101F50000F91FF90EF90DF90CF90089560E070E0D8
:101F600080E090E01F910F91FF90EF90DF90CF9075
:101F70000895CF93DF93CDB7DEB7C65AD1090FB618
:101F8000F894DEBF0FBECDBF789484B5826084BD67
:101F900084B5816084BD85B5826085BD85B581606D
:101FA00085BD80916E00816080936E0010928100EB
:101FB00080918100826080938100809181008160A6
:101FC0008093810080918000816080938000809167
:101FD000B10084608093B1008091B00081608093F3
:101FE000B000809191008260809391008091910077
:101FF0008160809391008091900081608093900037
:102000008091A10082608093A1008091A1008160F5
:102010008093A1008091A00081608093A0008091B6
:102020002101826080932101809121018160809350
:1020300021018091200181608093200180917A00AC
:10204000846080937A0080917A00826080937A0025
:1020500080917A00816080937A0080917A00806814
:1020600080937A001092C10061E083E248D861E079
:102070008DE245D861E08FE242D861E081E33FD84C
:1020800061E083E33CD861E085E339D860E082E237
:1020900036D860E08CE233D860E08EE230D860E081
:1020A00080E32DD860E082E32AD860E084E327D87B
:1020B00060E087E324D860E088E321D860E08DE326
:1020C0001ED860E08EE31BD860E08FE318D860E094
:1020D00080E415D860E085E212D860E08AE20FD88B
:1020E000E0918103F091820382E08083E0917D039F
:1020F000F0917E031082E0917F03F09180038FECDA
:10210000808310928903E0918503F091860386E035
:102110008083E0918303F0918403808180618083D8
:10212000E0918303F0918403808188608083E09153
:102130008303F0918403808180688083E09183032E
:10214000F091840380818F7D8083109249021092E8
:10215000480210924E031092700310924C0381E0DB
:1021600080934B031092260361E084E10E940208F1
:1021700061E085E10E9402088091B9008E7F809322
:10218000B9008091B9008D7F8093B90088E4809375
:10219000B80085E48093BC0088E18093B80001E03A
:1021A00023E042E06BE680912A04EED900E022E0D1
:1021B00044E06BE180912A04E7D922E044E06CE13D
:1021C00080912A04E1D920E046E06BE680912A0460
:1021D00024DA21E047E06BE680912A041EDA6EE102
:1021E00070E080E090E00E94BB0820E046E06BE6F3
:1021F00080912A0412DA40E76DE680912A049DD886
:1022000086E090DD40E06DE680912A0496D828EEC5
:1022100033E04BE254E060E080912A0444DE7090A9
:102220002B0428EE33E04BE254E061E080912A0475
:102230003ADE80902B0428EE33E04BE254E062E07B
:1022400080912A0430DE90902B044FE765E2809164
:102250002A0473D820E045E06AE680912A04DDD99B
:1022600048E665E280912A0468D821E041E06AE608
:1022700080912A04D2D964E170E080E090E00E946D
:10228000BB0801E020E040E069E877E085E892E003
:102290004EDD882309F4ADC288E090E00E94301A38
:1022A0005C0100E010E0F801EB53FE4F4491F801AF
:1022B000EA53FE4F2491680183E0C80ED11CF80157
:1022C000E953FE4FE491EE23B1F1EE2EF12CE33011
:1022D000C8F0B701C501CA55DF4F2883C65AD040A0
:1022E000CB55DF4F4883C55AD0400E945D1B5C012F
:1022F000CB55DF4F4881C55AD040CA55DF4F2881A2
:10230000C65AD040D50180E090E08E159F0548F474
:10231000F601E80FF91FEB53FE4FE491ED930196A0
:10232000F4CF00E0B701C50102DD87010C0D1D1DD2
:10233000811114C00FC00C5F1F4FF601EB53FE4F0D
:10234000E491E13039F442E368E380912A040E9489
:102350009D0904C0C5010E94C51A4BC2003C11056D
:1023600008F4A1CFC5010E94C51A03E023E042E0B2
:102370006BE680912A0408D942E168E380912A043F
:102380000E949D0944E069E180912A040E949D0910
:1023900001E023E045E06AE180912A04F5D803E0FA
:1023A00023E042E06AE180912A04EED822E044E092
:1023B0006BE180912A04E8D843E060E780912A0429
:1023C0000E949D0940E061E780912A040E949D09D6
:1023D00020E040E060E080912A041FD9072D26E02C
:1023E00046E060E080912A04CFD8082D26E046E040
:1023F00061E080912A04C8D8092D26E046E062E019
:1024000080912A04C1D8E12CF12CF701EA56FE4F45
:10241000E491A1E8B0E0AC0FBD1FAE0DB11DEC938F
:1024200081E08E0D9FEFE91AF90AA3E0AE1568F777
:10243000CD57DF4F6881C358D04070E09B012E5FBD
:102440003F4F90E02817390704F700E0CE57DF4FE1
:102450002881C258D040CF57DF4F4881C158D04063
:1024600081E890E08C0F9D1F039661DC80E0F7010E
:10247000EA56FE4FE491A1E8B0E0AC0FBD1FA80FF3
:10248000B11DEC938F5FBFEFEB1AFB0A843078F33A
:10249000CD57DF4F6881C358D04070E0AB014E5F2D
:1024A0005F4F282F30E0421753070CF700E0CE575C
:1024B000DF4F2881C258D040CF57DF4F4881C158E5
:1024C000D04081E890E08C0F9D1F039630DCF2DB5A
:1024D000D8DB682FCE010196F3DB42E06FE18091FB
:1024E0002A040E949D094CE961E280912A040E941D
:1024F0009D0940E560E280912A040E949D0940E028
:1025000062E280912A040E949D09D4DB21E046E02A
:102510006AE680912A0481D821E047E06AE680914A
:102520002A047BD821E043E06AE680912A0475D82A
:1025300080E0F701EA56FE4FE491A1E8B0E0AC0F6D
:10254000BD1FA80FB11DEC938F5F9FEFE91AF90A29
:10255000843078F3CD57DF4F6881C358D04070E0A6
:10256000AB014E5F5F4F282F30E0421753070CF747
:1025700000E0CE57DF4F2881C258D040CF57DF4F01
:102580004881C158D04081E890E08C0F9D1F039690
:10259000CEDB80E0F701EA56FE4FE491A1E8B0E01F
:1025A000AC0FBD1FA80FB11DEC938F5FAFEFEA1A00
:1025B000FA0A843078F3CD57DF4F6881C358D04092
:1025C00070E0AB014E5F5F4F282F30E0421753079A
:1025D0000CF700E0CE57DF4F2881C258D040CF57CC
:1025E000DF4F4881C158D04081E890E08C0F9D1F9B
:1025F00003969DDB80E0F701EA56FE4FE491A1E8E7
:10260000B0E0AC0FBD1FA80FB11DEC938F5FBFEF03
:10261000EB1AFB0A843078F3CD57DF4F6881C3583B
:10262000D04070E0AB014E5F5F4F282F30E0421783
:1026300053070CF700E0CE57DF4F2881C258D04037
:10264000CF57DF4F4881C158D04081E890E08C0FD0
:102650009D1F03966CDB15DB83309105E0F3682F3B
:10266000CE0101962DDB80E0F701EA56FE4FE491A2
:10267000A1E8B0E0AC0FBD1FA80FB11DEC938F5FB8
:102680009FEFE91AF90A843078F3CD57DF4F38808D
:10269000C358D040832C912CA4014E5F5F4F282F4C
:1026A00030E04217530704F7CE57DF4FB880C258C7
:1026B000D040CF57DF4F2880C158D040422D4F71B6
:1026C0006DE680912A040E949D098B2D2BDBC12C85
:1026D000D12C612C7724739471E8472E512C4C0E29
:1026E0005D1EA3E04A0E511CC814D90490F5C60122
:1026F00040968816990618F4A32CAC1802C050E135
:10270000A52E8A2D90E093012B193109281739073E
:1027100014F4AB2CA19492012C0D3D1D08EE13E096
:102720004A2D6FE680912A040E94AC09CA0CD11C84
:10273000BA0CC814D904C0F6B11001C02394422DBC
:102740004F716DE680912A040E949D098B2DEADA73
:10275000CBCF97DA83309105E0F3682FCE01019655
:10276000AFDAF701EA56FE4F80E09491A1E8B0E0BD
:10277000AC0FBD1FA80FB11D9C938F5F843010F468
:102780003196F3CFCD57DF4F6881C358D04070E00A
:10279000AB014E5F5F4F282F30E04217530784F79D
:1027A00000E0CE57DF4F2881C258D040CF57DF4FCF
:1027B0004881C158D04081E890E08C0F9D1F03965E
:1027C000B6DA20E047E06AE680912A040E940D0B09
:1027D0008AE290E090932D0480932C046BDA08EE4B
:1027E00013E02BE234E041E06AE380912A040E9486
:1027F000AC0948E455E066E080912A040E9474091F
:102800004EE050EF68E080912A040E94740946E788
:1028100058E06AE080912A040E94740941E550E082
:1028200063E180912A040E9474094DE550E065E15E
:1028300080912A040E94740949E750E067E1809181
:102840002A040E94740921E047E06AE680912A0484
:102850000E940D0B80912C0490912D0490938B027B
:1028600080938A020EDA90938D0280938C028EE21E
:1028700092E038DA20918C0230918D0280918A02A8
:1028800090918B022817390730F4FBD990938D0271
:1028900080938C02EFCF43E0880F991F4A95E1F7B0
:1028A0008217930708F47CC1E0908C02F0908D02AF
:1028B00060918A0270918B02E616F70608F476C1E1
:1028C0008AE492E0FDD960918A0270918B02C7017F
:1028D000861B970B90938D0280938C0285D2892B57
:1028E00009F059C1A0904E02B12CBA2CAA248091B3
:1028F0004F02A82AC0905202D12CDC2CCC2480910B
:102900005302C82AE0905602F12CFE2CEE2480914E
:102910005702E82A60914A0270E0762F662780917C
:102920004B02682B072E000C880B990BF6D320E086
:1029300030E040E858E3D5D42B013C0160931A0401
:1029400070931B0480931C0490931D04B501BB0C71
:10295000880B990BE2D320E030E040E858E3C1D483
:102960004B015C0160931E0470931F04809320044C
:1029700090932104B601DD0C880B990BCED320E097
:1029800030E040E858E3ADD4CF56DF4F6883798319
:102990008A839B83C159D04060932204709323049F
:1029A0008093240490932504B701FF0C880B990BA6
:1029B000B4D320E030E040E858E393D46B017C01CD
:1029C000609326047093270480932804909329042D
:1029D000A3019201C301B2012AD2CB56DF4F688313
:1029E00079838A839B83C559D040A301920179D40E
:1029F000C756DF4F688379838A839B83C959D04048
:102A0000A5019401C501B40112D22B013C01A5011D
:102A1000940167D49B01AC01C756DF4F688179816F
:102A20008A819B81C959D04002D220E030E040E841
:102A30005FE3FCD1C356DF4F688379838A839B832E
:102A4000CD59D040CF56DF4F288139814A815B81F3
:102A5000C159D040C301B20144D4CF55DF4F688380
:102A600079838A839B83C15AD040A7019601CB56B4
:102A7000DF4F688179818A819B81C559D04031D4EB
:102A80009B01AC01CF55DF4F688179818A819B81A1
:102A9000C15AD040CBD1C356DF4F288139814A81FA
:102AA0005B81CD59D0404DD260938E0270938F02DE
:102AB0008093900290939102A7019601C301B20105
:102AC00010D42B013C01CF56DF4F288139814A8138
:102AD0005B81C159D040CB56DF4F688179818A81B3
:102AE0009B81C559D040FDD39B01AC01C301B2010C
:102AF0009ED101D2DC01CB01B05880939202909319
:102B00009302A0939402B0939502A7019601C70186
:102B1000B6018DD1A7019601E4D39B01AC01C75644
:102B2000DF4F688179818A819B81C959D0407FD1EB
:102B300020E030E040E85FE379D12B013C01CF5643
:102B4000DF4F288139814A815B81C159D040CA0158
:102B5000B9016DD1A7019601C4D36B017C01A50118
:102B60009401CB56DF4F688179818A819B81C55959
:102B7000D040B7D39B01AC01C701B60157D1A30127
:102B80009201DFD16093960270939702809398022E
:102B90009093990289CE8ED88FE392E0A3D884CE09
:102BA00089D86FD890938D0280938C0210929B02EB
:102BB00010929A0264EF71E080E090E00E94BB08FE
:102BC00011E08091000290910102019709F0A9C0E3
:102BD0008091AE0281110CC06CE270E08DE290E059
:102BE0000E94630D9093AD028093AC021093AE02ED
:102BF0008091A40281110CC06EE270E08FE290E03F
:102C00000E94630D9093A3028093A2021093A402EA
:102C10008091AC029091AD02CD9754F481E0209167
:102C2000A2023091A3022D3331051CF480E001C0D3
:102C300081E08093A102882379F062E370E083E36E
:102C400090E00E94630D9093A00280939F0260E346
:102C500070E081E390E00EC06CE270E08DE290E005
:102C60000E94630D9093A00280939F026EE270E039
:102C70008FE290E00E94630D90939E0280939D02EC
:102C800080919C02811131C04091A10220919F024C
:102C90003091A00280919D0290919E02442321F0E8
:102CA000281739077CF403C02817390774F062E34A
:102CB00070E086E090E00E94760C62E370E083E0D2
:102CC00090E00DC0821793076CF462E370E085E03A
:102CD00090E00E94760C62E370E084E090E00E9455
:102CE000760C1FC010939C021CC060E070E085E071
:102CF00090E00E94760C60E070E086E090E00E9438
:102D0000760C60E070E083E090E00E94760C60E07A
:102D100070E084E090E00E94760C10920102109224
:102D200000020E9489064DCFE1E7F3E01382128290
:102D300088EE93E0A0E0B0E084839583A683B78318
:102D400022E132E03183208325EC30E0358724878F
:102D500024EC30E03787268720EC30E0318B208B65
:102D600021EC30E0338B228B22EC30E0358B248B4E
:102D700026EC30E0378B268B118E128E138E148E3C
:102D8000EEE0F4E01382128284839583A683B783F6
:102D900082E292E09183808388E680932A04EAE1CC
:102DA000F4E080E090E0A0E8BFE380839183A28319
:102DB000B3831482158216821782108611861286BA
:102DC00013861486158616861786EDE3F4E01082C6
:102DD0001182128213821482158216821782108643
:102DE0001186128613860895AA1BBB1B51E107C0EA
:102DF000AA1FBB1FA617B70710F0A61BB70B881F8B
:102E0000991F5A95A9F780959095BC01CD01089519
:102E1000EE0FFF1F881F8BBF0790F691E02D1994CE
:102E200088D5B7FF0895821B930B08955058BB2790
:102E3000AA270ED015C206D230F00BD220F031F402
:102E40009F3F11F41EF4C5C10EF4E095E7FBBBC132
:102E5000E92F17D280F3BA17620773078407950723
:102E600018F071F49EF52FC20EF4E0950B2EBA2FD8
:102E7000A02D0B01B90190010C01CA01A001112480
:102E8000FF27591B99F0593F50F4503E68F11A162C
:102E9000F040A22F232F342F4427585FF3CF4695BD
:102EA00037952795A795F0405395C9F77EF41F16DF
:102EB000BA0B620B730B840BBAF09150A1F0FF0FA9
:102EC000BB1F661F771F881FC2F70EC0BA0F621F95
:102ED000731F841F48F4879577956795B795F79585
:102EE0009E3F08F0B3CF9395880F08F09927EE0F17
:102EF0009795879508959F939F77EEE389379E076F
:102F000020F4ECE2F1E08DD109C042D19058A2EA60
:102F10002AED3FE049EC5FE39BDFA2D10F9007FC75
:102F2000905808958FD158F080E891E009F49EEF11
:102F300090D128F040E851E059F45EEF09C049C152
:102F4000C2C1E92FE0789DD168F3092E052AC1F3AB
:102F5000261737074807590738F00E2E07F8E025DF
:102F600069F0E025E0640AC0EF6307F8009407FA0F
:102F7000DB01B9019D01DC01CA01AD01EF9341D034
:102F80006FD10AD05F91552331F02BED3FE049E43A
:102F900050FD49EC4CCF0895DF93DD27B92FBF7763
:102FA00040E85FE31616170648075B0710F4D92FB1
:102FB00091D19F938F937F936F9338D2E0E4F1E0A8
:102FC0000BD14ED12F913F914F915F9196D1DD233F
:102FD00049F09058A2EA2AED3FE049EC5FE3D0784F
:102FE0005D2736DFDF913CC134D140F02BD130F08A
:102FF00021F45F3F19F0E7C0511166C1EAC041D129
:1030000098F39923C9F35523B1F3951B550BBB27AF
:10301000AA2762177307840738F09F5F5F4F220F5C
:10302000331F441FAA1FA9F333D00E2E3AF0E0E855
:1030300030D091505040E695001CCAF729D0FE2FA1
:1030400027D0660F771F881FBB1F26173707480733
:10305000AB07B0E809F0BB0B802DBF01FF279358E9
:103060005F4F2AF09E3F510568F0ADC02DC15F3F14
:10307000ECF3983EDCF3869577956795B795F795D1
:103080009F5FC9F7880F911D9695879597F90895C9
:10309000E1E0660F771F881FBB1F62177307840765
:1030A000BA0720F0621B730B840BBA0BEE1F88F774
:1030B000E095089504D06894B11106C10895E9D04F
:1030C00088F09F5790F0B92F9927B751A0F0D1F011
:1030D000660F771F881F991F1AF0BA95C9F712C09B
:1030E000B13081F0F0D0B1E00895EDC0672F782FB6
:1030F0008827B85F39F0B93FCCF386957795679507
:10310000B395D9F73EF490958095709561957F4F72
:103110008F4F9F4F0895E89409C097FB3EF4909518
:103120008095709561957F4F8F4F9F4F9923A9F0A0
:10313000F92F96E9BB279395F6958795779567952F
:10314000B795F111F8CFFAF4BB0F11F460FF1BC073
:103150006F5F7F4F8F4F9F4F16C0882311F096E906
:1031600011C0772321F09EE8872F762F05C06623B4
:1031700071F096E8862F70E060E02AF09A95660F6D
:10318000771F881FDAF7880F9695879597F9089526
:10319000DF93CF931F930F938B01EC01EDE6F1E0EA
:1031A0001BD05ED09801AE018B01EC0160E070E0B5
:1031B00080E89FE33BDEFCD09801AE010F911F91A8
:1031C000CF91DF919AC097F99F6780E870E060E047
:1031D00008959FEF80EC0895DF93CF931F930F9393
:1031E000FF92EF92DF927B018C01689405C0DA2E8A
:1031F000EF0183D0FE01E894A59125913591459189
:103200005591AEF3EF0124DEFE019701A801DA9497
:1032100079F7DF90EF90FF900F911F91CF91DF91A1
:1032200008959F938F937F936F93FF93EF939B01E9
:10323000AC0157D0EF91FF91CFDF2F913F914F918C
:103240005F914FC000240A94161617061806090647
:10325000089500240A94121613061406050608950C
:10326000092E0394000C11F4882352F0BB0F40F494
:10327000BF2B11F460FF04C06F5F7F4F8F4F9F4FD4
:10328000089557FD9058440F551F59F05F3F71F056
:103290004795880F97FB991F61F09F3F79F08795BD
:1032A0000895121613061406551FF2CF4695F1DF46
:1032B00008C0161617061806991FF1CF86957105D6
:1032C000610508940895E894BB2766277727CB010A
:1032D00097F908959B01AC0160E070E080E89FE3FE
:1032E000A8C00BD0BDCFAEDF28F0B3DF18F0952318
:1032F00009F069CF6ECF1124E7CFC3DFA0F3959F0C
:10330000D1F3950F50E0551F629FF001729FBB27CC
:10331000F00DB11D639FAA27F00DB11DAA1F649F78
:103320006627B00DA11D661F829F2227B00DA11D2B
:10333000621F739FB00DA11D621F839FA00D611DB1
:10334000221F749F3327A00D611D231F849F600DD2
:10335000211D822F762F6A2F11249F5750408AF00B
:10336000E1F088234AF0EE0FFF1FBB1F661F771F97
:10337000881F91505040A9F79E3F510570F023CF10
:10338000A3CF5F3FECF3983EDCF386957795679586
:10339000B795F795E7959F5FC1F7FE2B880F911DB5
:1033A0009695879597F9089511F40EF412CF43C0BE
:1033B00070DFD0F39923D9F3CEF39F57550B87FFD6
:1033C00048D00024A0E640EA900180585695979591
:1033D00028F4805C660F771F881F20F026173707B8
:1033E000480730F4621B730B840B202931294A2BC8
:1033F000A69517940794202531254A2758F7660F7C
:10340000771F881F20F026173707480730F4620B14
:10341000730B840B200D311D411DA09581F7B9015F
:10342000842F9158880F9695879508959B01AC013C
:1034300058CFE5DD15CF9F3F31F0915020F48795AF
:1034400077956795B795880F911D9695879597F90C
:10345000089591505040660F771F881FD2F7089546
:10346000CF93DF938230910510F482E090E0E091F9
:103470004B04F0914C0420E030E0C0E0D0E0309705
:1034800011F14081518148175907C0F04817590779
:1034900061F482819381209719F09B838A832BC0EA
:1034A00090934C0480934B0426C02115310519F0EC
:1034B0004217530718F49A01BE01DF01EF010280A1
:1034C000F381E02DDCCF2115310509F1281B390BE3
:1034D0002430310590F412968D919C9113976115CB
:1034E000710521F0FB019383828304C090934C0407
:1034F00080934B04FD01329644C0FD01E20FF31F9F
:1035000081939193225031092D933C933AC020919D
:10351000490430914A04232B41F420910402309154
:10352000050230934A04209349042091020230910D
:1035300003022115310541F42DB73EB74091060233
:1035400050910702241B350BE0914904F0914A0485
:10355000E217F307A0F42E1B3F0B2817390778F06A
:10356000AC014E5F5F4F2417350748F04E0F5F1FC9
:1035700050934A04409349048193919302C0E0E040
:10358000F0E0CF01DF91CF9108950F931F93CF9378
:10359000DF93009709F48CC0FC01329713821282EA
:1035A00000914B0410914C040115110581F4208108
:1035B0003181820F931F2091490430914A042817CA
:1035C000390779F5F0934A04E093490471C0D801B2
:1035D00040E050E0AE17BF0750F412962D913C9199
:1035E0001397AD012115310509F1D901F3CF9D01E3
:1035F000DA013383228360817181860F971F8217DE
:10360000930769F4EC0128813981260F371F2E5F5B
:103610003F4F318320838A819B8193838283452B13
:1036200029F4F0934C04E0934B0442C01396FC93AE
:10363000EE931297ED01499159919E01240F351F88
:10364000E217F30771F480819181840F951F029630
:1036500011969C938E938281938113969C938E9363
:103660001297E0E0F0E0D80112968D919C911397AB
:10367000009719F0F8018C01F6CF8D919C9198017B
:103680002E5F3F4F820F931F2091490430914A04CF
:103690002817390769F4309729F410924C041092D6
:1036A0004B0402C01382128210934A04009349040F
:1036B000DF91CF911F910F9108956F927F928F921A
:1036C0009F92AF92BF92CF92DF92EF92FF920F93B1
:1036D0001F93CF93DF93EC01009781F4CB01DF912F
:1036E000CF911F910F91FF90EF90DF90CF90BF90FF
:1036F000AF909F908F907F906F90B2CEFC01E60FBD
:10370000F71F9C0122503109E217F30708F4A8C003
:10371000D9010D911C91119706171707A8F00530D4
:10372000110508F49BC0C80104978617970708F491
:1037300095C002501109061B170B019311936D934D
:103740007C93CF0122DF8AC05B01A01AB10A4C0131
:10375000800E911EA0914B04B0914C0440E050E0CB
:10376000E12CF12C109709F44AC0A815B905D1F540
:103770006D907C901197630182E0C80ED11CCA1431
:10378000DB0480F1A3014A195B096A0182E0C80EDB
:10379000D11C1296BC9012971396AC91B5E0CB1643
:1037A000D10440F0B282A38351834083D9016D9349
:1037B0007C930AC00E5F1F4FC301800F911FF90158
:1037C00091838083EB2DFA2FE114F10431F0D701BE
:1037D0001396FC93EE93129741C0F0934C04E09340
:1037E0004B043CC08D919C9111974817590708F4E0
:1037F000AC017D0112960D90BC91A02DB3CF8091AC
:10380000490490914A0488159905E1F44617570731
:10381000C8F48091020290910302009741F48DB7A1
:103820009EB74091060250910702841B950BE81742
:10383000F907B0F4F0934A04E0934904F901718365
:1038400060830CC0CB010CDE7C01009749F0A8011D
:10385000BE0128D0CE0199DEC70104C0CE0102C04E
:1038600080E090E0DF91CF911F910F91FF90EF905A
:10387000DF90CF90BF90AF909F908F907F906F9090
:10388000089581E090E0F89463C0FB01DC0104C07E
:103890008D910190801921F441505040C8F7881B48
:1038A000990B0895FB01DC0102C001900D9241507B
:1038B0005040D8F70895052E97FB16F400940FD0CA
:1038C00057FD05D014D007FC02D046F408C050952F
:1038D0004095309521953F4F4F4F5F4F08959095FC
:1038E0008095709561957F4F8F4F9F4F0895A1E20E
:1038F0001A2EAA1BBB1BFD010DC0AA1FBB1FEE1F6A
:10390000FF1FA217B307E407F50720F0A21BB30BB4
:10391000E40BF50B661F771F881F991F1A9469F730
:1039200060957095809590959B01AC01BD01CF018C
:103930000895A29FB001B39FC001A39F700D811D88
:103940001124911DB29F700D811D1124911D0895A8
:04395000F894FFCF19
:10395400010000004D04800001000000E8030000A5
:1039640000002206B90DEC05CA05DE056806000054
:10397400000073074407E60630072107200747794C
:10398400726F20496E697469616C697A656400526A
:0839940065736574000D0A0063
:020000023000CC
:10E000000D9489F10D94B2F10D94B2F10D94B2F129
:10E010000D94B2F10D94B2F10D94B2F10D94B2F1F0
:10E020000D94B2F10D94B2F10D94B2F10D94B2F1E0
:10E030000D94B2F10D94B2F10D94B2F10D94B2F1D0
:10E040000D94B2F10D94B2F10D94B2F10D94B2F1C0
:10E050000D94B2F10D94B2F10D94B2F10D94B2F1B0
:10E060000D94B2F10D94B2F10D94B2F10D94B2F1A0
:10E070000D94B2F10D94B2F10D94B2F10D94B2F190
:10E080000D94B2F10D94B2F10D94B2F10D94B2F180
:10E090000D94B2F10D94B2F10D94B2F10D94B2F170
:10E0A0000D94B2F10D94B2F10D94B2F10D94B2F160
:10E0B0000D94B2F10D94B2F10D94B2F10D94B2F150
:10E0C0000D94B2F10D94B2F10D94B2F10D94B2F140
:10E0D0000D94B2F10D94B2F10D94B2F10D94B2F130
:10E0E0000D94B2F141546D656761323536300041AF
:10E0F000726475696E6F206578706C6F72657220DE
:10E1000073746B3530305632206279204D4C530099
:10E11000426F6F746C6F616465723E004875683F52
:10E1200000436F6D70696C6564206F6E203D200048
:10E130004350552054797065202020203D20005FF9
:10E140005F4156525F415243485F5F3D2000415658
:10E1500052204C696243205665723D20004743437C
:10E160002056657273696F6E203D20004350552024
:10E1700049442020202020203D20004C6F7720663D
:10E18000757365202020203D20004869676820665F
:10E190007573652020203D200045787420667573D6
:10E1A00065202020203D20004C6F636B2066757336
:10E1B000652020203D20004D617220203720323024
:10E1C000313300312E362E3800342E332E350056A2
:10E1D00023202020414444522020206F7020636F70
:10E1E00064652020202020696E73747275637469E1
:10E1F0006F6E2061646472202020496E74657272B3
:10E20000757074006E6F20766563746F7200726A49
:10E210006D702020006A6D70200057686174207056
:10E220006F72743A00506F7274206E6F7420737541
:10E2300070706F72746564004D7573742062652030
:10E2400061206C6574746572002000577269747483
:10E25000696E672045450052656164696E672045B7
:10E26000450045452065727220636E743D00504F35
:10E27000525400303D5A65726F2061646472003FF1
:10E280003D43505520737461747300403D454550C3
:10E29000524F4D207465737400423D426C696E6B41
:10E2A000204C454400453D44756D70204545505215
:10E2B0004F4D00463D44756D7020464C415348001B
:10E2C000483D48656C70004C3D4C69737420492F83
:10E2D0004F20506F72747300513D51756974005234
:10E2E0003D44756D702052414D00563D73686F7707
:10E2F00020696E7465727275707420566563746FF0
:10E30000727300593D506F727420626C696E6B00BD
:10E310002A0011241FBECFEFD1E2DEBFCDBF01E046
:10E320000CBF12E0A0E0B2E0EEE1FDEF03E00BBFB6
:10E3300002C007900D92A030B107D9F712E0A0E01B
:10E34000B2E001C01D92AE30B107E1F70F9460F367
:10E350000D948DFE01E20EBF0FEF0DBF11241FBE05
:10E360000D9460F30D9400F020E030E040ED57E0B4
:10E3700005C0FA013197F1F72F5F3F4F2817390792
:10E38000C0F308959C01260F311DC901A0E0B0E043
:10E390002F5F3F4FABBFFC018791882361F08093D3
:10E3A000C6008091C00086FFFCCF8091C0008064D1
:10E3B0008093C000EACF08958DE08093C6008091DD
:10E3C000C00086FFFCCF8091C00080648093C000B5
:10E3D0008AE08093C6008091C00086FFFCCF8091C8
:10E3E000C00080648093C00008950F94C2F10F9420
:10E3F000DCF10895FC019081992359F09093C600B7
:10E400008091C00086FFFCCF8091C0008064809323
:10E41000C0003196992379F70895282F982F929567
:10E420009F70892F805D8A3308F0895F8093C600D2
:10E430008091C00086FFFCCF8091C00080648093F3
:10E44000C000822F8F70982F905D9A3308F0995FEB
:10E450009093C6008091C00086FFFCCF8091C000E1
:10E4600080648093C00008959C01FB01853691056E
:10E470001CF46330710594F0C90164E670E00F94F8
:10E480002EFE605D7F4F6093C6008091C00086FFC6
:10E49000FCCF8091C00080648093C0002B30310598
:10E4A00014F43297B4F0C90164E670E00F942EFEC4
:10E4B0006AE070E00F942EFE605D7F4F6093C600AF
:10E4C0008091C00086FFFCCF8091C0008064809363
:10E4D000C000C9016AE070E00F942EFEC0968093E0
:10E4E000C6008091C00086FFFCCF8091C000806490
:10E4F0008093C00008951F93182F8EE692EE60E07F
:10E500000F94C2F11093C6008091C00086FFFCCF2B
:10E510008091C00080648093C0000F94DCF11F9153
:10E5200008952F923F924F925F926F927F928F92B7
:10E530009F92AF92BF92CF92DF92EF92FF920F9392
:10E540001F93DF93CF93CDB7DEB762970FB6F894E2
:10E55000DEBF0FBECDBF382E622ECA01DB015C01CB
:10E560006D01772420E2222E2E010894411C511CBB
:10E570008BC081E0A81680E0B80681E0C80680E084
:10E58000D80628F0C601AA27BB270F940DF2BB2797
:10E59000AD2D9C2D8B2D0F940DF28A2D0F940DF225
:10E5A0002092C6008091C00086FFFCCF8091C00001
:10E5B00080648093C0009DE29093C6008091C0006B
:10E5C00086FFFCCF8091C00080648093C0002092C1
:10E5D000C6008091C00086FFFCCF8091C00080649F
:10E5E0008093C00019828601750188249924A1E0D6
:10E5F0003A1651F03A1620F0B2E03B1661F409C029
:10E600000BBFF701779007C0C7010F9477FE782EF4
:10E6100002C0F7017080872D0F940DF22092C60082
:10E620008091C00086FFFCCF8091C0008064809301
:10E63000C000872D8052F401EF70F0708F3520F408
:10E64000E40DF51D708204C0E40DF51D8EE280839B
:10E650000894E11CF11C011D111D0894811C911CE2
:10E6600090E18916910409F0C2CF80E190E0A0E02A
:10E67000B0E0A80EB91ECA1EDB1E198AC2010F9493
:10E68000FAF10F94DCF16A94662009F072CF629679
:10E690000FB6F894DEBF0FBECDBFCF91DF911F91B3
:10E6A0000F91FF90EF90DF90CF90BF90AF909F9031
:10E6B0008F907F906F905F904F903F902F90089534
:10E6C0002F923F924F925F926F927F928F929F9282
:10E6D000AF92BF92CF92DF92EF92FF920F931F9370
:10E6E000DF93CF93CDB7DEB7CD53D1400FB6F894BB
:10E6F000DEBF0FBECDBF01E20EBF0FEF0DBF94B75F
:10E70000F894A89514BE80916000886180936000A1
:10E7100010926000789493FF05C0E0910002F091A0
:10E7200001021995279A2F9A8091C00082608093E8
:10E73000C00080E18093C40088E18093C1000000A4
:10E74000EE24FF24870144E0A42EB12CCC24DD2448
:10E7500024C0C5010197F1F70894E11CF11C011DCB
:10E76000111D21E2E2162EE4F20620E0020720E06D
:10E77000120718F031E0C32ED12CC801B70127ECE5
:10E780003BE140E050E00F9441FE611571058105C9
:10E79000910519F485B1805885B98091C00087FD35
:10E7A00003C0C114D104A9F2A6014F5F5F4FC25E3E
:10E7B000DE4F59834883CE51D140C25EDE4F8881FF
:10E7C0009981CE51D140019711F00D9410FEC05D9A
:10E7D000DE4F19821882C053D14060E0C15DDE4F28
:10E7E0001882CF52D14088249924C35DDE4F19820C
:10E7F0001882CD52D140C05EDE4F188219821A8233
:10E800001B82C052D140CE5CDE4F188219821A8220
:10E810001B82C253D140EE24FF2487010BBFF701B6
:10E8200007911691C45CDE4F19830883CC53D14005
:10E830000D940BFEC25EDE4F28813981CE51D1404E
:10E840002130310509F52091C600C25EDE4F1982E4
:10E850001882CE51D14022C02F5F3F4F4F4F5F4FA4
:10E86000213082E138078AE7480780E0580780F0C6
:10E87000C45CDE4FE881F981CC53D140EF5FFF4F9C
:10E8800019F0EE27FF27099420E030E040E050E047
:10E890008091C00087FFE0CF2091C600C35DDE4FAE
:10E8A00048815981CD52D1404F5F5F4FC35DDE4FEC
:10E8B00059834883CD52D140213209F063C64A3092
:10E8C000510508F05FC60894811C911C53E0851621
:10E8D000910409F059C600E010E018C081E280936D
:10E8E000C6008091C00086FFFCCF8091C00080648C
:10E8F0008093C0002F5F3F4F2931310579F70F9486
:10E90000DCF10F5F1F4F0530110519F020E030E0FA
:10E91000E5CF10920A0210920B0210920C02109294
:10E920000D02109206021092070210920802109235
:10E930000902109202021092030210920402109235
:10E9400005028FEE90EE60E00F94F5F180E191EE1C
:10E9500060E00F94C2F18091C00087FFFCCF9091DE
:10E96000C600903608F09F759032B8F09093C600BC
:10E970008091C00086FFFCCF8091C00080648093AE
:10E98000C000A0E2A093C6008091C00086FFFCCF2B
:10E990008091C00080648093C000983409F4D7C18E
:10E9A0009934B8F4923409F459C1933458F490333B
:10E9B00019F1903308F4E3C59F33A1F1903409F0C5
:10E9C000DEC5BDC0953409F470C1963409F0D7C5D1
:10E9D00098C1923509F42BC2933538F49C3409F46C
:10E9E000F5C1913509F0CBC518C2963509F445C279
:10E9F000993509F0C4C567C483E792EE62E00F94CD
:10EA0000F5F110920602109207021092080210927D
:10EA1000090210920A0210920B0210920C0210923C
:10EA20000D0213C18FE792EE62E00F94F5F18FEEC5
:10EA300090EE60E00F94F5F181E291EE60E00F94CA
:10EA4000C2F187EB91EE60E00F94F5F180E391EE77
:10EA500060E00F94C2F184EE90EE60E00F94F5F167
:10EA60008FE391EE60E00F94C2F186E090E061E008
:10EA700070E00F9434F20F94DCF18DE591EE60E0DC
:10EA80000F94C2F189EC91EE60E00F94F5F18EE401
:10EA900091EE60E00F94C2F183EC91EE60E00F9490
:10EAA000F5F18CE691EE60E00F94C2F18EE10F94E7
:10EAB0000DF288E90F940DF281E00F940DF20F949E
:10EAC000DCF18BE791EE60E00F94C2F119E0E0E039
:10EAD000F0E010935700E4918E2F0F940DF20F94F5
:10EAE000DCF18AE891EE60E00F94C2F1E3E0F0E03F
:10EAF00010935700E4918E2F0F940DF20F94DCF1D8
:10EB000089E991EE60E00F94C2F1E2E0F0E0109349
:10EB10005700E4918E2F0F940DF20F94DCF188EAE8
:10EB200091EE60E00F94C2F1E1E0F0E01093570045
:10EB30001491812F0F940DF20F94DCF107CF8BE825
:10EB400092EE62E00F94F5F18BE492EE60E00F94A8
:10EB5000F5F10F94DCF100E010E019C0C8016F2D51
:10EB60000F947FFEFF2031F489E492EE60E00F9471
:10EB7000C2F10BC0F092C6008091C00086FFFCCFAE
:10EB80008091C00080648093C0000F5F1F4FC80158
:10EB900081519F41A0E0B0E0ABBFFC01F790BAE229
:10EBA000FB1621F0E2E000301E07C1F60F94DCF105
:10EBB0000F94DCF187E592EE60E00F94F5F10F948D
:10EBC000DCF1CC24DD2400E010E01EC0C8010F946D
:10EBD00077FEF82E882331F489E492EE60E00F94FA
:10EBE000C2F10BC08093C6008091C00086FFFCCFAD
:10EBF0008091C00080648093C000FE1419F00894D6
:10EC0000C11CD11C0F5F1F4FC80181519F41A0E063
:10EC1000B0E0ABBFFC01E790FAE2EF1621F022E092
:10EC20000030120799F60F94DCF10F94DCF182E6C4
:10EC300092EE60E00F94C2F1C60161E070E00F94C3
:10EC400034F20F94DCF10F94DCF110920202109276
:10EC50000302109204021092050278CE89E992EE26
:10EC600062E00F94F5F1279A2F9A16C02F9880E052
:10EC700090E0E0EDF7E03197F1F7019684369105E9
:10EC8000C1F72F9A80E090E0E0EDF7E03197F1F7DF
:10EC9000019684369105C1F78091C00087FFE6CFC9
:10ECA0008091C00087FFFCCF64C485EA92EE62E0E9
:10ECB0000F94F5F140910202509103026091040219
:10ECC0007091050281E020E10F9491F2809102029F
:10ECD00090910302A0910402B091050280509F4FD1
:10ECE000AF4FBF4F8093020290930302A0930402A0
:10ECF000B093050280509041A040B04008F426CE69
:10ED0000A4CF83EB92EE62E00F94F5F140910602FE
:10ED100050910702609108027091090280E020E1A1
:10ED20000F9491F28091060290910702A09108023F
:10ED3000B091090280509F4FAF4FBF4F80930602A2
:10ED400090930702A0930802B0930902FFCD80ECD4
:10ED500092EE62E00F94F5F183E792EE60E00F949B
:10ED6000F5F18FE792EE60E00F94F5F18BE892EE0B
:10ED700060E00F94F5F189E992EE60E00F94F5F10F
:10ED800085EA92EE60E00F94F5F183EB92EE60E09D
:10ED90000F94F5F180EC92EE60E00F94F5F187ECC2
:10EDA00092EE60E00F94F5F188ED92EE60E00F9442
:10EDB000F5F18FED92EE60E00F94F5F18AEE92EEB0
:10EDC00060E00F94F5F183E093EEBDCD87EC92EE19
:10EDD00062E00F94F5F181E40F947BF282E40F94EA
:10EDE0007BF283E40F947BF284E40F947BF285E45E
:10EDF0000F947BF286E40F947BF287E40F947BF20E
:10EE000088E40F947BF28AE40F947BF28BE40F94F6
:10EE10007BF28CE40F947BF299CD88ED92EE62E068
:10EE20000F94F5F1772473948824992409C48FED05
:10EE300092EE62E00F94F5F140910A0250910B02BC
:10EE400060910C0270910D0282E020E10F9491F22A
:10EE500080910A0290910B02A0910C02B0910D02D8
:10EE600080509F4FAF4FBF4F80930A0290930B0289
:10EE7000A0930C02B0930D0269CD8AEE92EE62E08F
:10EE80000F94F5F184EE90EE60E00F94F5F18FECC5
:10EE900091EE60E00F94F5F1662477244301CC5D98
:10EEA000DE4F19821882C452D140D401C301B695F5
:10EEB000A79597958795CA5DDE4F88839983AA8326
:10EEC000BB83C652D140CC5DDE4FA881B981C4520C
:10EED000D1401196CC5DDE4FB983A883C452D14096
:10EEE000CD0162E070E00F9434F2B0E2B093C6005E
:10EEF0008091C00086FFFCCF8091C0008064809329
:10EF0000C000EDE2E093C6008091C00086FFFCCF18
:10EF10008091C00080648093C000F0E2F093C6004E
:10EF20008091C00086FFFCCF8091C00080648093F8
:10EF3000C000CA5DDE4FE880F9800A811B81C6529D
:10EF4000D140BB27A12F902F8F2D0F940DF2CA5DBA
:10EF5000DE4F8881C652D1400F940DF2B0E2FB2EF5
:10EF6000F092C6008091C00086FFFCCF8091C00067
:10EF700080648093C0000DE30093C6008091C000C0
:10EF800086FFFCCF8091C00080648093C00010E2B7
:10EF90001093C6008091C00086FFFCCF8091C00016
:10EFA00080648093C0008BBEF3012791C65DDE4F65
:10EFB0002883CA52D140A22EBB24CC24DD2408943D
:10EFC000611C711C811C911C8BBEF3018791282E42
:10EFD0003324442455240894611C711C811C911C09
:10EFE0008BBEF3013791C55DDE4F3883CB52D140E4
:10EFF0000894611C711C811C911C8BBEF30147910C
:10F00000C45DDE4F4883CC52D140ADEFEA2EAFEF66
:10F01000FA2EAFEF0A2FAFEF1A2F6E0C7F1C801E57
:10F02000911E142D032DF22CEE24EA0CFB1C0C1D5A
:10F030001D1D0F940DF220E22093C6008091C000A8
:10F0400086FFFCCF8091C00080648093C000C65DC5
:10F05000DE4F8881CA52D1400F940DF230E23093D6
:10F06000C6008091C00086FFFCCF8091C000806404
:10F070008093C000C45DDE4F8881CC52D1400F9494
:10F080000DF240E24093C6008091C00086FFFCCFA5
:10F090008091C00080648093C000C55DDE4F888190
:10F0A000CB52D1400F940DF250E25093C6008091A4
:10F0B000C00086FFFCCF8091C00080648093C000B8
:10F0C0008FEFE8168FEFF80680E0080780E018075A
:10F0D00031F484E092EE60E00F94C2F1DFC0D80119
:10F0E000C7018070907CA070B0708050904CA040A0
:10F0F000B040D1F52FEF3FE340E050E0E222F322B1
:10F1000004231523CA5DDE4FA880B980CA80DB8046
:10F11000C652D140AE0CBF1CC01ED11EAA0CBB1CD7
:10F12000CC1CDD1C8EE092EE60E00F94C2F1BB2798
:10F13000A12F902F8F2D0F940DF28E2D0F940DF285
:10F1400030E23093C6008091C00086FFFCCF8091F2
:10F15000C00080648093C0004EE34093C60080915D
:10F16000C00086FFFCCF87C08EE09EEFA0E0B0E03D
:10F17000E822F9220A231B239CE0E91694E9F90608
:10F1800090E0090790E0190709F088C0C45DDE4FE0
:10F19000A881CC52D140EA2EFF2400E010E0102FCD
:10F1A0000F2DFE2CEE24C55DDE4FB881CB52D14031
:10F1B000EB0EF11C011D111DD601C501817090706F
:10F1C000A070B070DC0199278827E80EF91E0A1F8D
:10F1D0001B1F20EF30E040E050E0A222B322C42207
:10F1E000D52241E1AA0CBB1CCC1CDD1C4A95D1F7F1
:10F1F000EA0CFB1C0C1D1D1D81E090E0A0E0B0E0BE
:10F20000282239224A225B2235E1220C331C441C7D
:10F21000551C3A95D1F7E20CF31C041D151D57013E
:10F220006801AA0CBB1CCC1CDD1C85E192EE60E0E1
:10F230000F94C2F1C801AA27BB270F940DF2BB2778
:10F24000A12F902F8F2D0F940DF28E2D0F940DF274
:10F2500090E29093C6008091C00086FFFCCF809121
:10F26000C00080648093C000AEE3A093C60080918C
:10F27000C00086FFFCCF8091C00080648093C000F6
:10F28000C601AA27BB270F940DF2BB27AD2D9C2DDD
:10F290008B2D0F940DF28A2D0F940DF20F94DCF14B
:10F2A000CC5DDE4FE881F981C452D140F99709F471
:10F2B0004DCBF4E0EF2EF12C012D112D6E0C7F1CA7
:10F2C000801E911EF2CD83E093EE62E00F94F5F183
:10F2D0008AE192EE60E00F94C2F18091C00087FF56
:10F2E000FCCF1091C6001F751093C6008091C0001E
:10F2F00086FFFCCF8091C00080648093C0000F9493
:10F30000DCF1812F81548A3108F036C1163409F4BA
:10F3100095C0173490F4133409F44EC0143430F40B
:10F320001134F1F0123409F01DC130C0143409F465
:10F3300059C0153409F016C16BC01A3409F4C4C0A1
:10F340001B3438F4173409F48FC0183409F00AC19B
:10F35000A1C01B3409F4D2C01C3409F003C1E8C0B9
:10F360008FEF81B90DC082B1809582B980E090E0C5
:10F37000E0EDF7E03197F1F70196883C9105C1F790
:10F380008091C00087FFEFCF12B8EFC08FEF84B934
:10F390000DC085B1809585B980E090E0E0EDF7E0A3
:10F3A0003197F1F70196883C9105C1F78091C00033
:10F3B00087FFEFCF15B8D9C08FEF87B90DC088B1DF
:10F3C000809588B980E090E0E0EDF7E03197F1F7C3
:10F3D0000196883C9105C1F78091C00087FFEFCF6F
:10F3E00018B8C3C08FEF8AB90DC08BB180958BB9A7
:10F3F00080E090E0E0EDF7E03197F1F70196883C8E
:10F400009105C1F78091C00087FFEFCF1BB8ADC059
:10F410008FEF8DB90DC08EB180958EB980E090E0F0
:10F42000E0EDF7E03197F1F70196883C9105C1F7DF
:10F430008091C00087FFEFCF1EB897C08FEF80BBD1
:10F440000DC081B3809581BB80E090E0E0EDF7E0F6
:10F450003197F1F70196883C9105C1F78091C00082
:10F4600087FFEFCF11BA81C08FEF83BB0DC084B38C
:10F47000809584BB80E090E0E0EDF7E03197F1F714
:10F480000196883C9105C1F78091C00087FFEFCFBE
:10F4900014BA6BC08FEF809301010FC080910201FD
:10F4A00080958093020180E090E0E0EDF7E03197F5
:10F4B000F1F70196883C9105C1F78091C00087FF64
:10F4C000EDCF1092020151C08FEF809304010FC065
:10F4D0008091050180958093050180E090E0E0ED4A
:10F4E000F7E03197F1F70196883C9105C1F78091DB
:10F4F000C00087FFEDCF1092050137C08FEF8093DA
:10F5000007010FC08091080180958093080180E079
:10F5100090E0E0EDF7E03197F1F70196883C910536
:10F52000C1F78091C00087FFEDCF109208011DC088
:10F530008FEF80930A010FC080910B01809580931B
:10F540000B0180E090E0E0EDF7E03197F1F70196F4
:10F55000883C9105C1F78091C00087FFEDCF1092E4
:10F560000B0103C085E292EEEEC98091C00087FFD7
:10F57000FCCF8091C600EAC988E392EEE4C98CE131
:10F5800091EEE1C988249924933011F1943028F444
:10F59000913089F09230B8F408C0953061F195301F
:10F5A000F0F0963009F048C043C02B3109F042C951
:10F5B00091E06BE13FC96227C15DDE4F2883CF52E6
:10F5C000D14092E037C9B22FA0E0622793E032C960
:10F5D000822F90E0A82BB92B622794E02BC92E3004
:10F5E00009F039C3622795E0C05DDE4F19821882A9
:10F5F000C053D1401FC9E1E0F0E0EC0FFD1FC05D3A
:10F60000DE4F08811981C053D140E00FF11F2083E4
:10F610000F5F1F4FC05DDE4F19830883C053D14079
:10F6200062270A171B0709F005C9D80196E002C92D
:10F63000261709F010C303C0973009F0FBC87724E0
:10F640009981933109F412C19431C8F4963009F4C8
:10F65000D8C0973050F4923009F406C1933009F4C1
:10F660006DC0913009F059C253C0913109F477C08F
:10F67000923108F0BBC0903109F04FC2F5C098310B
:10F6800009F487C0993150F4953109F4EFC09531F0
:10F6900008F4C6C1963109F040C2C2C19A3109F4DA
:10F6A0006CC09A3108F491C09B3109F45BC09D3164
:10F6B00009F033C29D81903359F48F81882311F46E
:10F6C0009EE11CC0813011F091E018C098E916C08D
:10F6D000892F807591F0903539F4E0E0F0E089E011
:10F6E0008093570094910AC0983539F4E3E0F0E034
:10F6F00089E080935700949101C090E01A821B82A8
:10F700008D818C831D829E831F8227E030E009C299
:10F710001A8288E08B8381E48C8386E58D8382E581
:10F720008E8389E48F8383E5888780E589878FE5E9
:10F730008A8782E38B872BE030E0F3C18A818139AD
:10F7400041F0823941F0803911F48FE005C080E04A
:10F7500003C082E001C08AE01A828B8344C0772410
:10F76000739482C08D81882311F48EE12CC0813086
:10F7700011F081E028C088E926C01A82E1E0F0E0BB
:10F7800089E08093570084918B831C8224E030E0D1
:10F79000C8C18B81803589F48C81883039F4E2E0EE
:10F7A000F0E089E08093570084910DC0E0E0F0E044
:10F7B00089E080935700849106C0E3E0F0E089E09F
:10F7C0008093570084911A82DFCF8D81836C99E0FA
:10F7D000E1E0F0E0082E90935700E89507B600FCB2
:10F7E000FDCF1A821B8223E030E09BC180EC8A832C
:10F7F000CE5CDE4F188219821A821B82C253D1401E
:10F800008EC18A8190E0A0E0B0E0582F44273327D2
:10F8100022278B8190E0A0E0B0E0DC0199278827C7
:10F82000282B392B4A2B5B2B8D8190E0A0E0B0E098
:10F83000282B392B4A2B5B2B8C8190E0A0E0B0E089
:10F84000BA2FA92F982F8827282B392B4A2B5B2BCF
:10F85000220F331F441F551FC05EDE4F288339839C
:10F860004A835B83C052D1401A8259C13A81C95C34
:10F87000DE4F3883C753D140CA5CDE4F1882C6536F
:10F88000D1408B81C82EDD24CA5CDE4F488159816E
:10F89000C653D140C42AD52A933109F082C0CE5C28
:10F8A000DE4F88819981AA81BB81C253D1408050AB
:10F8B000904CA340B04030F583E0CE5CDE4FE88052
:10F8C000F9800A811B81C253D140F70100935B008C
:10F8D00080935700E89507B600FCFDCFCE5CDE4F65
:10F8E000088119812A813B81C253D14000501F4FAA
:10F8F0002F4F3F4FCE5CDE4F088319832A833B8313
:10F90000C253D140C05EDE4F488159816A817B81FC
:10F91000C052D140DE011B9631E08C9111962C91A2
:10F9200011971296C75CDE4F2883C953D140C85C3B
:10F93000DE4F1882C853D14090E0C85CDE4FE881AA
:10F94000F981C853D1408E2B9F2B0C01FA01609393
:10F950005B0030935700E89511244E5F5F4F6F4F67
:10F960007F4F0EEFE02E0FEFF02ECE0CDF1CC114F8
:10F97000D10499F685E0C05EDE4F088119812A81A5
:10F980003B81C052D140F80120935B008093570027
:10F99000E89507B600FCFDCF81E180935700E8951C
:10F9A00035C0C05EDE4F88819981AA81BB81C0527B
:10F9B000D140B695A795979587957C018601ABE0D8
:10F9C000AA2EB12CAC0EBD1E0BC0D5016D915D01F0
:10F9D000C7010F947FFE0894E11CF11C01501040F8
:10F9E0000115110591F7A60160E070E0440F551F65
:10F9F000661F771FC05EDE4FE880F9800A811B8199
:10FA0000C052D1404E0D5F1D601F711F1A82C05E33
:10FA1000DE4F488359836A837B83C052D1407FC0C5
:10FA2000FA80C55CDE4FF882CB53D140C65CDE4F16
:10FA30001882CA53D1408B81C82EDD24C65CDE4FAC
:10FA400008811981CA53D140C02AD12A1A828981DA
:10FA5000BE016D5F7F4F843121F59601C05EDE4FA0
:10FA6000E880F9800A811B81C052D1400BBFF701A9
:10FA700087919691DB018C9311969C936E5F7F4FDB
:10FA8000D801C7010296A11DB11DC05EDE4F88835B
:10FA90009983AA83BB83C052D14022503040F1F6F3
:10FAA00036C0C05EDE4F288139814A815B81C052F9
:10FAB000D1400894C108D108760100E010E0089414
:10FAC000C11CD11C0894E11CF11C011D111DE20E8A
:10FAD000F31E041F151F21BDBB27A52F942F832FB5
:10FAE00082BD2F5F3F4F4F4F5F4FF89A80B5DB01CC
:10FAF0008D93BD012E153F054007510761F7C05E8C
:10FB0000DE4F288339834A835B83C052D1409601FC
:10FB10002D5F3F4FFB01108204C080EC8A8322E0FE
:10FB200030E08BE18093C6008091C00086FFFCCF5F
:10FB30008091C00080648093C000C15DDE4FF88179
:10FB4000CF52D140F093C6008091C00086FFFCCF19
:10FB50008091C00080648093C000432F3093C60022
:10FB60008091C00086FFFCCF8091C00080648093AC
:10FB7000C000922F2093C6008091C00086FFFCCF6A
:10FB80008091C00080648093C0008EE08093C600A6
:10FB90008091C00086FFFCCF8091C000806480937C
:10FBA000C00065E1C15DDE4FE880CF52D1406E25D7
:10FBB00069276427FE01319610C090819093C6009A
:10FBC0008091C00086FFFCCF31968091C000806498
:10FBD0008093C0006927215030402115310569F715
:10FBE0006093C6008091C00086FFFCCF8091C0006A
:10FBF00080648093C00085B1805885B9772081F4F6
:10FC0000C15DDE4F0881CF52D1400F5FC15DDE4F35
:10FC10000883CF52D14090E0A0E0B0E00D941AF4F8
:10FC200027982F9880E090E020ED37E0F901319798
:10FC3000F1F7019684369105C9F700008091C00064
:10FC40008D7F8093C00081E180935700E895EE2777
:10FC5000FF270994FFCF90E00D941AF497FB092E2B
:10FC600007260AD077FD04D02ED006D000201AF443
:10FC7000709561957F4F0895F6F7909581959F4F08
:10FC80000895A1E21A2EAA1BBB1BFD010DC0AA1FDD
:10FC9000BB1FEE1FFF1FA217B307E407F50720F0F5
:10FCA000A21BB30BE40BF50B661F771F881F991F70
:10FCB0001A9469F760957095809590959B01AC01B9
:10FCC000BD01CF010895AA1BBB1B51E107C0AA1FAC
:10FCD000BB1FA617B70710F0A61BB70B881F991FED
:10FCE0005A95A9F780959095BC01CD010895F99991
:10FCF000FECF92BD81BDF89A992780B50895262F31
:10FD0000F999FECF1FBA92BD81BD20BD0FB6F89400
:0EFD1000FA9AF99A0FBE01960895F894FFCF63
:040000033000E000E9
:00000001FF